{
    "_format": "hh-sol-artifact-1",
    "contractName": "LandRegistery",
    "sourceName": "contracts/LandRegistery.sol",
    "abi": [
        {
            "inputs": [],
            "stateMutability": "nonpayable",
            "type": "constructor"
        },
        {
            "anonymous": false,
            "inputs": [
                {
                    "indexed": true,
                    "internalType": "uint256",
                    "name": "landId",
                    "type": "uint256"
                },
                {
                    "indexed": true,
                    "internalType": "address",
                    "name": "owner",
                    "type": "address"
                },
                {
                    "indexed": false,
                    "internalType": "string",
                    "name": "location",
                    "type": "string"
                },
                {
                    "indexed": false,
                    "internalType": "string",
                    "name": "area",
                    "type": "string"
                },
                {
                    "indexed": false,
                    "internalType": "string",
                    "name": "dimensionOfLand",
                    "type": "string"
                },
                {
                    "indexed": false,
                    "internalType": "string",
                    "name": "landIdentificationNumber",
                    "type": "string"
                },
                {
                    "indexed": false,
                    "internalType": "enum LandRegistery.LandType",
                    "name": "landType",
                    "type": "uint8"
                }
            ],
            "name": "LandRegistered",
            "type": "event"
        },
        {
            "anonymous": false,
            "inputs": [
                {
                    "indexed": true,
                    "internalType": "uint256",
                    "name": "landId",
                    "type": "uint256"
                },
                {
                    "indexed": true,
                    "internalType": "address",
                    "name": "from",
                    "type": "address"
                },
                {
                    "indexed": true,
                    "internalType": "address",
                    "name": "to",
                    "type": "address"
                },
                {
                    "indexed": false,
                    "internalType": "uint256",
                    "name": "transferAmount",
                    "type": "uint256"
                }
            ],
            "name": "LandTransferred",
            "type": "event"
        },
        {
            "inputs": [
                {
                    "internalType": "uint256",
                    "name": "",
                    "type": "uint256"
                }
            ],
            "name": "allLands",
            "outputs": [
                {
                    "internalType": "uint256",
                    "name": "landId",
                    "type": "uint256"
                },
                {
                    "internalType": "address",
                    "name": "prevOwner",
                    "type": "address"
                },
                {
                    "internalType": "address",
                    "name": "currentOwner",
                    "type": "address"
                },
                {
                    "internalType": "string",
                    "name": "location",
                    "type": "string"
                },
                {
                    "internalType": "string",
                    "name": "area",
                    "type": "string"
                },
                {
                    "internalType": "string",
                    "name": "dimensionOfLand",
                    "type": "string"
                },
                {
                    "internalType": "string",
                    "name": "landIdentificationNumber",
                    "type": "string"
                },
                {
                    "internalType": "enum LandRegistery.LandStatus",
                    "name": "status",
                    "type": "uint8"
                },
                {
                    "internalType": "enum LandRegistery.LandType",
                    "name": "landType",
                    "type": "uint8"
                },
                {
                    "internalType": "uint256",
                    "name": "transferAmount",
                    "type": "uint256"
                }
            ],
            "stateMutability": "view",
            "type": "function"
        },
        {
            "inputs": [
                {
                    "internalType": "uint256",
                    "name": "_landId",
                    "type": "uint256"
                }
            ],
            "name": "getLandDetails",
            "outputs": [
                {
                    "components": [
                        {
                            "internalType": "uint256",
                            "name": "landId",
                            "type": "uint256"
                        },
                        {
                            "internalType": "address",
                            "name": "prevOwner",
                            "type": "address"
                        },
                        {
                            "internalType": "address",
                            "name": "currentOwner",
                            "type": "address"
                        },
                        {
                            "internalType": "string",
                            "name": "location",
                            "type": "string"
                        },
                        {
                            "internalType": "string",
                            "name": "area",
                            "type": "string"
                        },
                        {
                            "internalType": "string",
                            "name": "dimensionOfLand",
                            "type": "string"
                        },
                        {
                            "internalType": "string",
                            "name": "landIdentificationNumber",
                            "type": "string"
                        },
                        {
                            "internalType": "enum LandRegistery.LandStatus",
                            "name": "status",
                            "type": "uint8"
                        },
                        {
                            "internalType": "enum LandRegistery.LandType",
                            "name": "landType",
                            "type": "uint8"
                        },
                        {
                            "internalType": "uint256",
                            "name": "transferAmount",
                            "type": "uint256"
                        }
                    ],
                    "internalType": "struct LandRegistery.Land",
                    "name": "",
                    "type": "tuple"
                }
            ],
            "stateMutability": "view",
            "type": "function"
        },
        {
            "inputs": [
                {
                    "internalType": "address",
                    "name": "_userAddress",
                    "type": "address"
                }
            ],
            "name": "getUserLands",
            "outputs": [
                {
                    "components": [
                        {
                            "internalType": "uint256",
                            "name": "landId",
                            "type": "uint256"
                        },
                        {
                            "internalType": "address",
                            "name": "prevOwner",
                            "type": "address"
                        },
                        {
                            "internalType": "address",
                            "name": "currentOwner",
                            "type": "address"
                        },
                        {
                            "internalType": "string",
                            "name": "location",
                            "type": "string"
                        },
                        {
                            "internalType": "string",
                            "name": "area",
                            "type": "string"
                        },
                        {
                            "internalType": "string",
                            "name": "dimensionOfLand",
                            "type": "string"
                        },
                        {
                            "internalType": "string",
                            "name": "landIdentificationNumber",
                            "type": "string"
                        },
                        {
                            "internalType": "enum LandRegistery.LandStatus",
                            "name": "status",
                            "type": "uint8"
                        },
                        {
                            "internalType": "enum LandRegistery.LandType",
                            "name": "landType",
                            "type": "uint8"
                        },
                        {
                            "internalType": "uint256",
                            "name": "transferAmount",
                            "type": "uint256"
                        }
                    ],
                    "internalType": "struct LandRegistery.Land[]",
                    "name": "",
                    "type": "tuple[]"
                }
            ],
            "stateMutability": "view",
            "type": "function"
        },
        {
            "inputs": [],
            "name": "owner",
            "outputs": [
                {
                    "internalType": "address",
                    "name": "",
                    "type": "address"
                }
            ],
            "stateMutability": "view",
            "type": "function"
        },
        {
            "inputs": [
                {
                    "internalType": "string",
                    "name": "input",
                    "type": "string"
                }
            ],
            "name": "parseAndConvert",
            "outputs": [
                {
                    "internalType": "uint256",
                    "name": "",
                    "type": "uint256"
                }
            ],
            "stateMutability": "pure",
            "type": "function"
        },
        {
            "inputs": [
                {
                    "internalType": "string",
                    "name": "_location",
                    "type": "string"
                },
                {
                    "internalType": "string",
                    "name": "_area",
                    "type": "string"
                },
                {
                    "internalType": "string",
                    "name": "_dimensionOfLand",
                    "type": "string"
                },
                {
                    "internalType": "string",
                    "name": "_landIdentificationNumber",
                    "type": "string"
                },
                {
                    "internalType": "enum LandRegistery.LandType",
                    "name": "_landType",
                    "type": "uint8"
                }
            ],
            "name": "registerLand",
            "outputs": [],
            "stateMutability": "nonpayable",
            "type": "function"
        },
        {
            "inputs": [
                {
                    "internalType": "uint256",
                    "name": "_landId",
                    "type": "uint256"
                },
                {
                    "internalType": "address",
                    "name": "_newOwner",
                    "type": "address"
                },
                {
                    "internalType": "uint256",
                    "name": "_transferAmount",
                    "type": "uint256"
                }
            ],
            "name": "transferLand",
            "outputs": [],
            "stateMutability": "nonpayable",
            "type": "function"
        },
        {
            "inputs": [
                {
                    "internalType": "address",
                    "name": "",
                    "type": "address"
                },
                {
                    "internalType": "uint256",
                    "name": "",
                    "type": "uint256"
                }
            ],
            "name": "userLands",
            "outputs": [
                {
                    "internalType": "uint256",
                    "name": "landId",
                    "type": "uint256"
                },
                {
                    "internalType": "address",
                    "name": "prevOwner",
                    "type": "address"
                },
                {
                    "internalType": "address",
                    "name": "currentOwner",
                    "type": "address"
                },
                {
                    "internalType": "string",
                    "name": "location",
                    "type": "string"
                },
                {
                    "internalType": "string",
                    "name": "area",
                    "type": "string"
                },
                {
                    "internalType": "string",
                    "name": "dimensionOfLand",
                    "type": "string"
                },
                {
                    "internalType": "string",
                    "name": "landIdentificationNumber",
                    "type": "string"
                },
                {
                    "internalType": "enum LandRegistery.LandStatus",
                    "name": "status",
                    "type": "uint8"
                },
                {
                    "internalType": "enum LandRegistery.LandType",
                    "name": "landType",
                    "type": "uint8"
                },
                {
                    "internalType": "uint256",
                    "name": "transferAmount",
                    "type": "uint256"
                }
            ],
            "stateMutability": "view",
            "type": "function"
        }
    ],
    "bytecode": "0x6080604052600060015534801561001557600080fd5b50336000806101000a81548173ffffffffffffffffffffffffffffffffffffffff021916908373ffffffffffffffffffffffffffffffffffffffff160217905550612814806100656000396000f3fe608060405234801561001057600080fd5b50600436106100885760003560e01c80638da5cb5b1161005b5780638da5cb5b14610142578063dc219adc14610160578063e0204df414610199578063fe0cb7dc146101b557610088565b806328bf5ef51461008d5780633ea73ae6146100bd57806341697be0146100ed5780636623771e14610126575b600080fd5b6100a760048036038101906100a29190611c74565b6101e5565b6040516100b491906122bb565b60405180910390f35b6100d760048036038101906100d29190611cd9565b61069a565b6040516100e491906123ce565b60405180910390f35b61010760048036038101906101029190611df1565b6106ad565b60405161011d9a999897969594939291906123e9565b60405180910390f35b610140600480360381019061013b9190611d1a565b61097b565b005b61014a610f81565b60405161015791906122a0565b60405180910390f35b61017a60048036038101906101759190611c9d565b610fa5565b6040516101909a999897969594939291906123e9565b60405180910390f35b6101b360048036038101906101ae9190611e1a565b611290565b005b6101cf60048036038101906101ca9190611df1565b6115f7565b6040516101dc91906123ac565b60405180910390f35b6060600260008373ffffffffffffffffffffffffffffffffffffffff1673ffffffffffffffffffffffffffffffffffffffff168152602001908152602001600020805480602002602001604051908101604052809291908181526020016000905b8282101561068f578382906000526020600020906009020160405180610140016040529081600082015481526020016001820160009054906101000a900473ffffffffffffffffffffffffffffffffffffffff1673ffffffffffffffffffffffffffffffffffffffff1673ffffffffffffffffffffffffffffffffffffffff1681526020016002820160009054906101000a900473ffffffffffffffffffffffffffffffffffffffff1673ffffffffffffffffffffffffffffffffffffffff1673ffffffffffffffffffffffffffffffffffffffff16815260200160038201805461033090612630565b80601f016020809104026020016040519081016040528092919081815260200182805461035c90612630565b80156103a95780601f1061037e576101008083540402835291602001916103a9565b820191906000526020600020905b81548152906001019060200180831161038c57829003601f168201915b505050505081526020016004820180546103c290612630565b80601f01602080910402602001604051908101604052809291908181526020018280546103ee90612630565b801561043b5780601f106104105761010080835404028352916020019161043b565b820191906000526020600020905b81548152906001019060200180831161041e57829003601f168201915b5050505050815260200160058201805461045490612630565b80601f016020809104026020016040519081016040528092919081815260200182805461048090612630565b80156104cd5780601f106104a2576101008083540402835291602001916104cd565b820191906000526020600020905b8154815290600101906020018083116104b057829003601f168201915b505050505081526020016006820180546104e690612630565b80601f016020809104026020016040519081016040528092919081815260200182805461051290612630565b801561055f5780601f106105345761010080835404028352916020019161055f565b820191906000526020600020905b81548152906001019060200180831161054257829003601f168201915b505050505081526020016007820160009054906101000a900460ff1660028111156105b3577f4e487b7100000000000000000000000000000000000000000000000000000000600052602160045260246000fd5b60028111156105eb577f4e487b7100000000000000000000000000000000000000000000000000000000600052602160045260246000fd5b81526020016007820160019054906101000a900460ff16600481111561063a577f4e487b7100000000000000000000000000000000000000000000000000000000600052602160045260246000fd5b6004811115610672577f4e487b7100000000000000000000000000000000000000000000000000000000600052602160045260246000fd5b815260200160088201548152505081526020019060010190610246565b505050509050919050565b6000806020830151905080915050919050565b60036020528060005260406000206000915090508060000154908060010160009054906101000a900473ffffffffffffffffffffffffffffffffffffffff16908060020160009054906101000a900473ffffffffffffffffffffffffffffffffffffffff169080600301805461072290612630565b80601f016020809104026020016040519081016040528092919081815260200182805461074e90612630565b801561079b5780601f106107705761010080835404028352916020019161079b565b820191906000526020600020905b81548152906001019060200180831161077e57829003601f168201915b5050505050908060040180546107b090612630565b80601f01602080910402602001604051908101604052809291908181526020018280546107dc90612630565b80156108295780601f106107fe57610100808354040283529160200191610829565b820191906000526020600020905b81548152906001019060200180831161080c57829003601f168201915b50505050509080600501805461083e90612630565b80601f016020809104026020016040519081016040528092919081815260200182805461086a90612630565b80156108b75780601f1061088c576101008083540402835291602001916108b7565b820191906000526020600020905b81548152906001019060200180831161089a57829003601f168201915b5050505050908060060180546108cc90612630565b80601f01602080910402602001604051908101604052809291908181526020018280546108f890612630565b80156109455780601f1061091a57610100808354040283529160200191610945565b820191906000526020600020905b81548152906001019060200180831161092857829003601f168201915b5050505050908060070160009054906101000a900460ff16908060070160019054906101000a900460ff1690806008015490508a565b60008054906101000a900473ffffffffffffffffffffffffffffffffffffffff1673ffffffffffffffffffffffffffffffffffffffff163373ffffffffffffffffffffffffffffffffffffffff1614610a09576040517f08c379a0000000000000000000000000000000000000000000000000000000008152600401610a009061238c565b60405180910390fd5b60016000815480929190610a1c90612662565b91905055506000610a2c8361069a565b90506000604051806101400160405280838152602001600073ffffffffffffffffffffffffffffffffffffffff1681526020013373ffffffffffffffffffffffffffffffffffffffff16815260200188815260200187815260200186815260200185815260200160016002811115610acd577f4e487b7100000000000000000000000000000000000000000000000000000000600052602160045260246000fd5b8152602001846004811115610b0b577f4e487b7100000000000000000000000000000000000000000000000000000000600052602160045260246000fd5b815260200160008152509050600260003373ffffffffffffffffffffffffffffffffffffffff1673ffffffffffffffffffffffffffffffffffffffff1681526020019081526020016000208190806001815401808255809150506001900390600052602060002090600902016000909190919091506000820151816000015560208201518160010160006101000a81548173ffffffffffffffffffffffffffffffffffffffff021916908373ffffffffffffffffffffffffffffffffffffffff16021790555060408201518160020160006101000a81548173ffffffffffffffffffffffffffffffffffffffff021916908373ffffffffffffffffffffffffffffffffffffffff1602179055506060820151816003019080519060200190610c34929190611a3b565b506080820151816004019080519060200190610c51929190611a3b565b5060a0820151816005019080519060200190610c6e929190611a3b565b5060c0820151816006019080519060200190610c8b929190611a3b565b5060e08201518160070160006101000a81548160ff02191690836002811115610cdd577f4e487b7100000000000000000000000000000000000000000000000000000000600052602160045260246000fd5b02179055506101008201518160070160016101000a81548160ff02191690836004811115610d34577f4e487b7100000000000000000000000000000000000000000000000000000000600052602160045260246000fd5b02179055506101208201518160080155505080600360008481526020019081526020016000206000820151816000015560208201518160010160006101000a81548173ffffffffffffffffffffffffffffffffffffffff021916908373ffffffffffffffffffffffffffffffffffffffff16021790555060408201518160020160006101000a81548173ffffffffffffffffffffffffffffffffffffffff021916908373ffffffffffffffffffffffffffffffffffffffff1602179055506060820151816003019080519060200190610e0e929190611a3b565b506080820151816004019080519060200190610e2b929190611a3b565b5060a0820151816005019080519060200190610e48929190611a3b565b5060c0820151816006019080519060200190610e65929190611a3b565b5060e08201518160070160006101000a81548160ff02191690836002811115610eb7577f4e487b7100000000000000000000000000000000000000000000000000000000600052602160045260246000fd5b02179055506101008201518160070160016101000a81548160ff02191690836004811115610f0e577f4e487b7100000000000000000000000000000000000000000000000000000000600052602160045260246000fd5b021790555061012082015181600801559050503373ffffffffffffffffffffffffffffffffffffffff16827f8d7e4a9f5fdf9ee8f3bf08a1972ccf962a75a81c44fa618aa7f7882b5a14552f8989898989604051610f709594939291906122dd565b60405180910390a350505050505050565b60008054906101000a900473ffffffffffffffffffffffffffffffffffffffff1681565b60026020528160005260406000208181548110610fc157600080fd5b9060005260206000209060090201600091509150508060000154908060010160009054906101000a900473ffffffffffffffffffffffffffffffffffffffff16908060020160009054906101000a900473ffffffffffffffffffffffffffffffffffffffff169080600301805461103790612630565b80601f016020809104026020016040519081016040528092919081815260200182805461106390612630565b80156110b05780601f10611085576101008083540402835291602001916110b0565b820191906000526020600020905b81548152906001019060200180831161109357829003601f168201915b5050505050908060040180546110c590612630565b80601f01602080910402602001604051908101604052809291908181526020018280546110f190612630565b801561113e5780601f106111135761010080835404028352916020019161113e565b820191906000526020600020905b81548152906001019060200180831161112157829003601f168201915b50505050509080600501805461115390612630565b80601f016020809104026020016040519081016040528092919081815260200182805461117f90612630565b80156111cc5780601f106111a1576101008083540402835291602001916111cc565b820191906000526020600020905b8154815290600101906020018083116111af57829003601f168201915b5050505050908060060180546111e190612630565b80601f016020809104026020016040519081016040528092919081815260200182805461120d90612630565b801561125a5780601f1061122f5761010080835404028352916020019161125a565b820191906000526020600020905b81548152906001019060200180831161123d57829003601f168201915b5050505050908060070160009054906101000a900460ff16908060070160019054906101000a900460ff1690806008015490508a565b60008054906101000a900473ffffffffffffffffffffffffffffffffffffffff1673ffffffffffffffffffffffffffffffffffffffff163373ffffffffffffffffffffffffffffffffffffffff161461131e576040517f08c379a00000000000000000000000000000000000000000000000000000000081526004016113159061238c565b60405180910390fd5b8260008111801561133157506001548111155b611370576040517f08c379a00000000000000000000000000000000000000000000000000000000081526004016113679061236c565b60405180910390fd5b60006003600086815260200190815260200160002090503373ffffffffffffffffffffffffffffffffffffffff168160020160009054906101000a900473ffffffffffffffffffffffffffffffffffffffff1673ffffffffffffffffffffffffffffffffffffffff1614611419576040517f08c379a00000000000000000000000000000000000000000000000000000000081526004016114109061234c565b60405180910390fd5b8060020160009054906101000a900473ffffffffffffffffffffffffffffffffffffffff1673ffffffffffffffffffffffffffffffffffffffff166108fc849081150290604051600060405180830381858888f19350505050158015611483573d6000803e3d6000fd5b508060020160009054906101000a900473ffffffffffffffffffffffffffffffffffffffff168160010160006101000a81548173ffffffffffffffffffffffffffffffffffffffff021916908373ffffffffffffffffffffffffffffffffffffffff160217905550838160020160006101000a81548173ffffffffffffffffffffffffffffffffffffffff021916908373ffffffffffffffffffffffffffffffffffffffff16021790555060028160070160006101000a81548160ff0219169083600281111561157c577f4e487b7100000000000000000000000000000000000000000000000000000000600052602160045260246000fd5b02179055508281600801819055508373ffffffffffffffffffffffffffffffffffffffff163373ffffffffffffffffffffffffffffffffffffffff16867f20b4587b96d546fb8dda06f8a11cc80fd5debab09bf4795380734af50f3d259c866040516115e891906123ce565b60405180910390a45050505050565b6115ff611ac1565b6003600083815260200190815260200160002060405180610140016040529081600082015481526020016001820160009054906101000a900473ffffffffffffffffffffffffffffffffffffffff1673ffffffffffffffffffffffffffffffffffffffff1673ffffffffffffffffffffffffffffffffffffffff1681526020016002820160009054906101000a900473ffffffffffffffffffffffffffffffffffffffff1673ffffffffffffffffffffffffffffffffffffffff1673ffffffffffffffffffffffffffffffffffffffff1681526020016003820180546116e490612630565b80601f016020809104026020016040519081016040528092919081815260200182805461171090612630565b801561175d5780601f106117325761010080835404028352916020019161175d565b820191906000526020600020905b81548152906001019060200180831161174057829003601f168201915b5050505050815260200160048201805461177690612630565b80601f01602080910402602001604051908101604052809291908181526020018280546117a290612630565b80156117ef5780601f106117c4576101008083540402835291602001916117ef565b820191906000526020600020905b8154815290600101906020018083116117d257829003601f168201915b5050505050815260200160058201805461180890612630565b80601f016020809104026020016040519081016040528092919081815260200182805461183490612630565b80156118815780601f1061185657610100808354040283529160200191611881565b820191906000526020600020905b81548152906001019060200180831161186457829003601f168201915b5050505050815260200160068201805461189a90612630565b80601f01602080910402602001604051908101604052809291908181526020018280546118c690612630565b80156119135780601f106118e857610100808354040283529160200191611913565b820191906000526020600020905b8154815290600101906020018083116118f657829003601f168201915b505050505081526020016007820160009054906101000a900460ff166002811115611967577f4e487b7100000000000000000000000000000000000000000000000000000000600052602160045260246000fd5b600281111561199f577f4e487b7100000000000000000000000000000000000000000000000000000000600052602160045260246000fd5b81526020016007820160019054906101000a900460ff1660048111156119ee577f4e487b7100000000000000000000000000000000000000000000000000000000600052602160045260246000fd5b6004811115611a26577f4e487b7100000000000000000000000000000000000000000000000000000000600052602160045260246000fd5b81526020016008820154815250509050919050565b828054611a4790612630565b90600052602060002090601f016020900481019282611a695760008555611ab0565b82601f10611a8257805160ff1916838001178555611ab0565b82800160010185558215611ab0579182015b82811115611aaf578251825591602001919060010190611a94565b5b509050611abd9190611bb0565b5090565b60405180610140016040528060008152602001600073ffffffffffffffffffffffffffffffffffffffff168152602001600073ffffffffffffffffffffffffffffffffffffffff1681526020016060815260200160608152602001606081526020016060815260200160006002811115611b64577f4e487b7100000000000000000000000000000000000000000000000000000000600052602160045260246000fd5b815260200160006004811115611ba3577f4e487b7100000000000000000000000000000000000000000000000000000000600052602160045260246000fd5b8152602001600081525090565b5b80821115611bc9576000816000905550600101611bb1565b5090565b6000611be0611bdb846124d2565b6124a1565b905082815260208101848484011115611bf857600080fd5b611c038482856125ee565b509392505050565b600081359050611c1a816127a0565b92915050565b600081359050611c2f816127b7565b92915050565b600082601f830112611c4657600080fd5b8135611c56848260208601611bcd565b91505092915050565b600081359050611c6e816127c7565b92915050565b600060208284031215611c8657600080fd5b6000611c9484828501611c0b565b91505092915050565b60008060408385031215611cb057600080fd5b6000611cbe85828601611c0b565b9250506020611ccf85828601611c5f565b9150509250929050565b600060208284031215611ceb57600080fd5b600082013567ffffffffffffffff811115611d0557600080fd5b611d1184828501611c35565b91505092915050565b600080600080600060a08688031215611d3257600080fd5b600086013567ffffffffffffffff811115611d4c57600080fd5b611d5888828901611c35565b955050602086013567ffffffffffffffff811115611d7557600080fd5b611d8188828901611c35565b945050604086013567ffffffffffffffff811115611d9e57600080fd5b611daa88828901611c35565b935050606086013567ffffffffffffffff811115611dc757600080fd5b611dd388828901611c35565b9250506080611de488828901611c20565b9150509295509295909350565b600060208284031215611e0357600080fd5b6000611e1184828501611c5f565b91505092915050565b600080600060608486031215611e2f57600080fd5b6000611e3d86828701611c5f565b9350506020611e4e86828701611c0b565b9250506040611e5f86828701611c5f565b9150509250925092565b6000611e7583836120a4565b905092915050565b611e8681612568565b82525050565b611e9581612568565b82525050565b6000611ea682612512565b611eb08185612535565b935083602082028501611ec285612502565b8060005b85811015611efe5784840389528151611edf8582611e69565b9450611eea83612528565b925060208a01995050600181019050611ec6565b50829750879550505050505092915050565b611f19816125ca565b82525050565b611f28816125ca565b82525050565b611f37816125dc565b82525050565b611f46816125dc565b82525050565b6000611f578261251d565b611f618185612546565b9350611f718185602086016125fd565b611f7a81612767565b840191505092915050565b6000611f908261251d565b611f9a8185612557565b9350611faa8185602086016125fd565b611fb381612767565b840191505092915050565b6000611fcb602a83612557565b91507f596f7520617265206e6f74207468652063757272656e74206f776e6572206f6660008301527f2074686973206c616e64000000000000000000000000000000000000000000006020830152604082019050919050565b6000612031601383612557565b91507f4c616e6420646f6573206e6f74206578697374000000000000000000000000006000830152602082019050919050565b6000612071601683612557565b91507f4e6f742074686520636f6e7472616374206f776e6572000000000000000000006000830152602082019050919050565b6000610140830160008301516120bd6000860182612282565b5060208301516120d06020860182611e7d565b5060408301516120e36040860182611e7d565b50606083015184820360608601526120fb8282611f4c565b915050608083015184820360808601526121158282611f4c565b91505060a083015184820360a086015261212f8282611f4c565b91505060c083015184820360c08601526121498282611f4c565b91505060e083015161215e60e0860182611f10565b50610100830151612173610100860182611f2e565b50610120830151612188610120860182612282565b508091505092915050565b6000610140830160008301516121ac6000860182612282565b5060208301516121bf6020860182611e7d565b5060408301516121d26040860182611e7d565b50606083015184820360608601526121ea8282611f4c565b915050608083015184820360808601526122048282611f4c565b91505060a083015184820360a086015261221e8282611f4c565b91505060c083015184820360c08601526122388282611f4c565b91505060e083015161224d60e0860182611f10565b50610100830151612262610100860182611f2e565b50610120830151612277610120860182612282565b508091505092915050565b61228b816125c0565b82525050565b61229a816125c0565b82525050565b60006020820190506122b56000830184611e8c565b92915050565b600060208201905081810360008301526122d58184611e9b565b905092915050565b600060a08201905081810360008301526122f78188611f85565b9050818103602083015261230b8187611f85565b9050818103604083015261231f8186611f85565b905081810360608301526123338185611f85565b90506123426080830184611f3d565b9695505050505050565b6000602082019050818103600083015261236581611fbe565b9050919050565b6000602082019050818103600083015261238581612024565b9050919050565b600060208201905081810360008301526123a581612064565b9050919050565b600060208201905081810360008301526123c68184612193565b905092915050565b60006020820190506123e36000830184612291565b92915050565b6000610140820190506123ff600083018d612291565b61240c602083018c611e8c565b612419604083018b611e8c565b818103606083015261242b818a611f85565b9050818103608083015261243f8189611f85565b905081810360a08301526124538188611f85565b905081810360c08301526124678187611f85565b905061247660e0830186611f1f565b612484610100830185611f3d565b612492610120830184612291565b9b9a5050505050505050505050565b6000604051905081810181811067ffffffffffffffff821117156124c8576124c7612738565b5b8060405250919050565b600067ffffffffffffffff8211156124ed576124ec612738565b5b601f19601f8301169050602081019050919050565b6000819050602082019050919050565b600081519050919050565b600081519050919050565b6000602082019050919050565b600082825260208201905092915050565b600082825260208201905092915050565b600082825260208201905092915050565b6000612573826125a0565b9050919050565b600081905061258882612778565b919050565b600081905061259b8261278c565b919050565b600073ffffffffffffffffffffffffffffffffffffffff82169050919050565b6000819050919050565b60006125d58261257a565b9050919050565b60006125e78261258d565b9050919050565b82818337600083830152505050565b60005b8381101561261b578082015181840152602081019050612600565b8381111561262a576000848401525b50505050565b6000600282049050600182168061264857607f821691505b6020821081141561265c5761265b612709565b5b50919050565b600061266d826125c0565b91507fffffffffffffffffffffffffffffffffffffffffffffffffffffffffffffffff8214156126a05761269f6126ab565b5b600182019050919050565b7f4e487b7100000000000000000000000000000000000000000000000000000000600052601160045260246000fd5b7f4e487b7100000000000000000000000000000000000000000000000000000000600052602160045260246000fd5b7f4e487b7100000000000000000000000000000000000000000000000000000000600052602260045260246000fd5b7f4e487b7100000000000000000000000000000000000000000000000000000000600052604160045260246000fd5b6000601f19601f8301169050919050565b60038110612789576127886126da565b5b50565b6005811061279d5761279c6126da565b5b50565b6127a981612568565b81146127b457600080fd5b50565b600581106127c457600080fd5b50565b6127d0816125c0565b81146127db57600080fd5b5056fea2646970667358221220e09426ba82ef2a910cae4643db8dee4917f1ebcb2a5be3a457ea2f5218e43e8064736f6c63430008000033",
    "linkReferences": {},
    "deployedLinkReferences": {}
}